:020000040C00EE
:10000000FFFF0020F507000C5908000C5908000CF0
:100010005908000C5908000C5908000C0000000099
:100020000000000000000000000000005908000C63
:100030005908000C000000005908000C350B000C9A
:100040005908000C5908000C5908000C5908000CFC
:100050005908000C5908000C5908000C5908000CEC
:100060005908000C00000000000000000000000023
:100070005908000C000000005908000C5908000C39
:100080005908000C5908000C5908000C5908000CBC
:100090005908000C5908000C5908000C5908000CAC
:1000A0005908000C5908000C5908000C5908000C9C
:1000B0005908000C5908000C5908000C5908000C8C
:1000C0005908000C5908000C5908000C5908000C7C
:1000D0005908000C5908000C5908000C5908000C6C
:1000E0005908000C5908000C5908000C5908000C5C
:1000F0005908000C5908000C5908000C5908000C4C
:100100005908000C5908000C5908000C5908000C3B
:100110005908000C5908000C5908000C5908000C2B
:100120005908000C5908000C5908000C5908000C1B
:100130005908000C5908000C5908000C5908000C0B
:100140005908000C5908000C5908000C5908000CFB
:100150005908000C5908000C5908000C5908000CEB
:10016000000000000000000000000000000000008F
:100170005908000C5908000C5908000C5908000CCB
:100180005908000C5908000C5908000C5908000CBB
:100190005908000C5908000C5908000C5908000CAB
:1001A0005908000C5908000C5908000C5908000C9B
:1001B0005908000C5908000C5908000C5908000C8B
:1001C0005908000C5908000C5908000C5908000C7B
:1001D0005908000C5908000C5908000C00000000D8
:1001E0005908000C5908000C5908000C5908000C5B
:1001F0005908000C000000005908000C0000000025
:1002000080B582B000AF134B124A526922F0080247
:100210005A61114B104A526822F001025A600F4B8A
:1002200003F5805314331B687B607B6823F00F0356
:100230007B607B6843F003037B60084B7A6803F5BF
:10024000805314331A6000F079F800F009F8083789
:10025000BD4680BD00ED00E0008000500010005859
:1002600080B485B000AF304BDB68B3F5803F52D12E
:100270002E4B1B6803F00403002B4FD02B4B9B68C5
:1002800003F070631B0E0133FB60284B9B6803F483
:10029000FE431B0A0133BB60244B9B6803F4FE033F
:1002A0001B0C01337B60214BDB6803F00103002B47
:1002B00018D01F4AFB68B2FBF3F3BA6802FB03F3E2
:1002C0003B603A687B68B2FBF3F21A4B1A60194B39
:1002D0001A68154BDB68DBB20133B2FBF3F2154B46
:1002E0001A601BE0144AFB68B2FBF3F3BA6802FB26
:1002F00003F33B603A687B68B2FBF3F20D4B1A6084
:100300000C4B1A68084BDB68DBB20133B2FBF3F22B
:10031000084B1A6002E0074B054A1A601437BD46C5
:100320005DF8047B704700BF004600501047005046
:0C03300000366E0100000020001BB7002A
:10033C0080B582B000AF00F08DFA0346002B00F0C0
:10034C0033819C4B5A689C4B1340002B07D0994A25
:10035C00984B5B6823F4803323F002035360974B74
:10036C005B6803F03003002B3BD0944B934A5268EC
:10037C0022F0F0025A60914B904A526842F40032DB
:10038C005A608C4B8B4AD26822F00102DA60894B9E
:10039C00884A526822F400325A60894B894A5A6062
:1003AC00874B00229A60864B05221A60814B1B6892
:1003BC0003F46073B3F5607F04D0814B9B68B3F595
:1003CC00FA7FF3D27E4B7E4A126822F001021A6049
:1003DC00784B1B6803F46073B3F5607F01D0002386
:1003EC00E3E0744B1B6803F00403002B40F0DC804B
:1003FC00754BDB6803F48033002B05D0724B724ACB
:10040C00D26822F48032DA60704B7B607A68704B71
:10041C00A3FB02135B0D013B3B60664B654A5268C4
:10042C0042F001025A60634B624A526842F0100279
:10043C005A60604A3B681904664B0B4393605D4BF2
:10044C005C4A526842F040025A605A4B594A526810
:10045C0022F010025A60574B564A526842F48022DE
:10046C005A60574B574A5A60554B00229A60544B6E
:10047C0005221A6000BF4F4B1B6803F00403002BCE
:10048C0004D14F4B9B68B3F5FA7FF4D24C4B4C4ADA
:10049C00126822F001021A60464B1B6803F0040339
:1004AC00002B25D0434B434A526822F001025A607C
:1004BC00454B00221A61444B00225A61424B0022E8
:1004CC001A62414B404AD26842F48032DA60394BAE
:1004DC00384A526822F040025A60394B40F2455279
:1004EC005A60374B00229A60354B05221A6001E0A6
:1004FC0000235AE0324B9B68632BFBD8304B304ABD
:10050C00126822F001021A60304B7B607B681A0A79
:10051C00314BA3FB02139B0A013B3B60254A3B6812
:10052C0019042C4B0B439360254B40F61B425A602D
:10053C00234B00229A60224B05221A6000BF204BED
:10054C009B68632BFBD81E4B1D4A126822F00102DC
:10055C001A601E4B7B607B68DA09204BA3FB0213ED
:10056C00DB0A013B3B60134A3B681904194B0B43F4
:10057C009360134B41F223325A60114B00229A6064
:10058C000F4B05221A6000BF0D4B9B68632BFBD8E9
:10059C000B4B0B4A126822F001021A60054B104AF1
:1005AC009A60104B0522DA60012318460837BD46C5
:1005BC0080BD00BF104700500200010000470050F2
:1005CC0010E000E0A34B4C000046005000389C1C8F
:1005DC00819F5E16014F0001C7541E012FE3BE0020
:0805EC00014F030160410050C2
:1005F40080B485B000AFF860B9607A604FF0FF3323
:0C06040018461437BD465DF8047B7047B3
:1006100080B485B000AFF860B9607A604FF0FF3306
:0C06200018461437BD465DF8047B704797
:10062C0080B485B000AFF860B9607A6000231846DA
:0C063C001437BD465DF8047B704700BF1A
:1006480080B485B000AFF860B9607A604FF0FF33CE
:0C06580018461437BD465DF8047B70475F
:1006640080B400AF4FF0FF331846BD465DF8047BFD
:04067400704700BF0C
:1006780080B483B000AF786039603B68002B02D04B
:100688004FF0FF3301E06FF0010318460C37BD4609
:080698005DF8047B704700BF10
:1006A00080B483B000AF786039607A683B689A4262
:1006B00002D14FF0FF3301E06FF0010318460C3711
:0806C000BD465DF8047B7047A4
:1006C80080B483B000AF78604FF0FF3318460C3722
:0806D800BD465DF8047B70478C
:1006E00080B487B000AF7860154B7B61154B1B68F9
:1006F000002B08D1134B144A1A60124B1A687B69FD
:100700001A44124B1A600F4B1B683B610D4B1B6860
:100710001A467B681344073323F00703FB600B4B37
:100720001B68FA689A4201D3002303E0054BFA687C
:100730001A603B6918461C37BD465DF8047B70475C
:100740000000000010000020000001201400002024
:1007500080B483B000AF78604FF0FF3318460C3799
:08076000BD465DF8047B704703
:1007680080B483B000AF78604FF0FF3318460C3781
:08077800BD465DF8047B7047EB
:1007800080B483B000AF786039604FF0FF33184613
:0C0790000C37BD465DF8047B704700BFCD
:10079C0080B400AF4FF0FF331846BD465DF8047BC4
:0407AC00704700BFD3
:1007B00080B400AF4FF0FF331846BD465DF8047BB0
:0407C000704700BFBF
:0C07C40080B483B000AF7860FEE700BF97
:0C07D00080B400AFBD465DF8047B7047AC
:1007DC0080B483B000AF78604FF0FF3318460C370D
:0807EC00BD465DF8047B704777
:1007F40080B582B000AF124B7B60124B3B6007E0C8
:100804003B681A1D3A607A68111D796012681A6093
:100814003A680D4B9A42F3D30C4B3B6004E03B68BF
:100824001A1D3A6000221A603A68094B9A42F6D3BC
:10083400FFF7E4FC00F04AF90837BD4680BD00BF6D
:100844000002000C00000020000000200400002032
:04085400040000207C
:0808580080B400AFFEE700BF11
:1008600080B400AF01231846BD465DF8047B704795
:1008700080B483B000AF03463960FB7197F907304D
:10088000002B0BDA0D49FB7903F00F03043B3A68A8
:10089000D2B29200D2B20B441A7609E0084997F915
:1008A00007303A68D2B29200D2B20B4483F80023E8
:1008B0000C37BD465DF8047B704700BF00ED00E0DB
:0408C00000E100E073
:1008C40080B582B000AF78607B68013BB3F1807F74
:1008D40001D301230FE00A4B7A68013A5A604FF0C2
:1008E400FF303F21FFF7C2FF054B00229A60044B03
:1008F40007221A60002318460837BD4680BD00BF92
:0409040010E000E01F
:1009080080B483B000AF0346FB71084B074A1269F5
:1009180022F0F8021A61054B044A1169FA790A4370
:100928001A610C37BD465DF8047B704700810248A8
:1009380080B483B000AF0346FB71084B074A126CC2
:1009480022F007021A64054B044A116CFA790A432B
:100958001A640C37BD465DF8047B70470081024875
:1009680080B400AF034B4FF480325A60BD465DF847
:08097800047B70470081024876
:1009800080B400AF034B4FF001125A60BD465DF8D2
:08099000047B7047008102485E
:1009980080B483B000AF0346FB71094B084A126963
:1009A80022F478421A61064B054A1169FA79120253
:1009B8000A431A610C37BD465DF8047B704700BFD7
:0409C8000081024860
:1009CC0080B483B000AF0346FB71094B084A126C2C
:1009DC0022F070021A64064B054A116CFA79120166
:1009EC000A431A640C37BD465DF8047B704700BFA0
:0409FC00008102482C
:100A000080B400AF034B4FF400325A60BD465DF82E
:080A1000047B704700810248DD
:100A180080B400AF034B4FF002125A60BD465DF838
:080A2800047B704700810248C5
:100A300080B483B000AF0346FB71094B084AD2690A
:100A400022F47802DA61064B054AD169FA79120478
:100A50000A43DA610C37BD465DF8047B704700BF7E
:040A600000810248C7
:100A640080B400AF044B5B6A03F480431846BD4670
:0C0A74005DF8047B704700BF0081024861
:100A800080B483B000AF0346FB71094B084AD269BA
:100A900022F07842DA61064B054AD169FA791206EA
:100AA0000A43DA610C37BD465DF8047B704700BF2E
:040AB0000081024877
:100AB40080B400AF044B5B6A03F400431846BD46A0
:0C0AC4005DF8047B704700BF0081024811
:100AD00080B500AF8020FFF717FF0220FFF72CFF43
:100AE000FFF742FF8020FFF757FF0220FFF76EFF5E
:100AF000FFF786FF0020FFF79BFF0020FFF7C0FFF6
:100B0000084B00221A60084B00221A60074B1A6833
:100B1000074BA3FB02135B091846FFF7D3FE30BF58
:100B2000FDE700BF080000200400002000000020B6
:040B30001F85EB51E1
:100B340080B500AFFFF794FF0346002B06D1254B89
:100B44001B68002B02D1234B01221A60FFF788FF98
:100B54000346002B06D11F4B1B68012B02D11D4BF2
:100B640002221A60FFF77CFF0346B3F5804F08D1D9
:100B7400184B1B68022B04D1FFF74CFF154B0022C6
:100B84001A60FFF795FF0346002B06D1124B1B6832
:100B9400002B02D1104B01221A60FFF789FF034694
:100BA400002B06D10C4B1B68012B02D10A4B0222ED
:100BB4001A60FFF77DFF0346B3F5004F08D1064BDB
:100BC4001B68022B04D1FFF7D9FE034B00221A60E5
:0C0BD40080BD00BF0800002004000020CD
:040BE000000E2707D5
:040000050C0007F5EF
:00000001FF
