:020000040C00EE
:100000000008002001020008AB020008BB02000843
:10001000CB020008DB020008EB0200080000000031
:10002000000000000000000000000000FB020008CB
:100030000B030008000000001B0300082B0300084E
:100040003B0300084B0300085B0300086B03000838
:100050007B0300088B0300089B030008AB03000828
:10006000BB030008000000000000000000000000CA
:10007000CB03000800000000DB030008EB030008CE
:10008000FB0300080B0400081B0400082B040008F5
:100090003B0400084B0400085B0400086B040008E4
:1000A0007B0400088B0400089B040008AB040008D4
:1000B000BB040008CB040008DB040008EB040008C4
:1000C000FB0400080B0500081B0500082B050008B1
:1000D0003B0500084B0500085B0500086B050008A0
:1000E0007B0500088B0500089B050008AB05000890
:1000F000BB050008CB050008DB050008EB05000880
:10010000FB05000809060008170600082506000878
:1001100033060008410600084F0600085D06000887
:100120006B06000879060008870600089506000897
:10013000A3060008B1060008BF060008CD060008A7
:10014000DB060008E9060008F706000805070008B6
:1001500013070008210700082F0700083D070008C3
:10016000000000000000000000000000000000008F
:100170004B070008590700086707000875070008C3
:1001800083070008910700089F070008AD070008D3
:10019000BB070008C9070008D7070008E5070008E3
:1001A000F3070008010800080F0800081D080008F0
:1001B0002B080008390800084708000855080008FF
:1001C00063080008710800087F0800088D0800080F
:1001D0009B080008A9080008B708000800000000F4
:1001E000C5080008D3080008E1080008EF08000867
:1001F000FD080008000000000B09000800000000D6
:10020000DFF80CD0034880470348804700F006B869
:1002100000080020D50A0008A50200081648174962
:10022000174A002A0AD04FEA920203680B60013A8B
:1002300004D000F1040001F10401F6E7114812496D
:10024000002909D04FEA91014FF000020260013904
:1002500002D000F10400F9E70C480D4908600D4890
:1002600080470D488047DFF834D04FF000004FF052
:100270000001DFF82CF000007016000C7008002060
:1002800008000000000800207000000000000008C6
:1002900008ED00E0390B00080916000800080020EE
:1002A000ED14000800BF7047FEE7DFF8700600B5E8
:1002B00081B0804701B000BDFEE7DFF8640600B5FD
:1002C00081B0804701B000BDFEE7DFF8580600B5F9
:1002D00081B0804701B000BDFEE7DFF84C0600B5F5
:1002E00081B0804701B000BDFEE7DFF8400600B5F1
:1002F00081B0804701B000BDFEE7DFF8340600B5ED
:1003000081B0804701B000BDFEE7DFF8280600B5E8
:1003100081B0804701B000BDFEE7DFF81C0600B5E4
:1003200081B0804701B000BDFEE7DFF8100600B5E0
:1003300081B0804701B000BDFEE7DFF8040600B5DC
:1003400081B0804701B000BDFEE7DFF8F80500B5D9
:1003500081B0804701B000BDFEE7DFF8EC0500B5D5
:1003600081B0804701B000BDFEE7DFF8E00500B5D1
:1003700081B0804701B000BDFEE7DFF8D40500B5CD
:1003800081B0804701B000BDFEE7DFF8C80500B5C9
:1003900081B0804701B000BDFEE7DFF8BC0500B5C5
:1003A00081B0804701B000BDFEE7DFF8B00500B5C1
:1003B00081B0804701B000BDFEE7DFF8A40500B5BD
:1003C00081B0804701B000BDFEE7DFF8980500B5B9
:1003D00081B0804701B000BDFEE7DFF88C0500B5B5
:1003E00081B0804701B000BDFEE7DFF8800500B5B1
:1003F00081B0804701B000BDFEE7DFF8740500B5AD
:1004000081B0804701B000BDFEE7DFF8680500B5A8
:1004100081B0804701B000BDFEE7DFF85C0500B5A4
:1004200081B0804701B000BDFEE7DFF8500500B5A0
:1004300081B0804701B000BDFEE7DFF8440500B59C
:1004400081B0804701B000BDFEE7DFF8380500B598
:1004500081B0804701B000BDFEE7DFF82C0500B594
:1004600081B0804701B000BDFEE7DFF8200500B590
:1004700081B0804701B000BDFEE7DFF8140500B58C
:1004800081B0804701B000BDFEE7DFF8080500B588
:1004900081B0804701B000BDFEE7DFF8FC0400B585
:1004A00081B0804701B000BDFEE7DFF8F00400B581
:1004B00081B0804701B000BDFEE7DFF8E40400B57D
:1004C00081B0804701B000BDFEE7DFF8D80400B579
:1004D00081B0804701B000BDFEE7DFF8CC0400B575
:1004E00081B0804701B000BDFEE7DFF8C00400B571
:1004F00081B0804701B000BDFEE7DFF8B40400B56D
:1005000081B0804701B000BDFEE7DFF8A80400B568
:1005100081B0804701B000BDFEE7DFF89C0400B564
:1005200081B0804701B000BDFEE7DFF8900400B560
:1005300081B0804701B000BDFEE7DFF8840400B55C
:1005400081B0804701B000BDFEE7DFF8780400B558
:1005500081B0804701B000BDFEE7DFF86C0400B554
:1005600081B0804701B000BDFEE7DFF8600400B550
:1005700081B0804701B000BDFEE7DFF8540400B54C
:1005800081B0804701B000BDFEE7DFF8480400B548
:1005900081B0804701B000BDFEE7DFF83C0400B544
:1005A00081B0804701B000BDFEE7DFF8300400B540
:1005B00081B0804701B000BDFEE7DFF8240400B53C
:1005C00081B0804701B000BDFEE7DFF8180400B538
:1005D00081B0804701B000BDFEE7DFF80C0400B534
:1005E00081B0804701B000BDFEE7DFF8000400B530
:1005F00081B0804701B000BDFEE7FD4800B581B085
:10060000804701B000BDFEE7FA4800B581B08047E1
:1006100001B000BDFEE7F84800B581B0804701B0E9
:1006200000BDFEE7F54800B581B0804701B000BDD0
:10063000FEE7F34800B581B0804701B000BDFEE79A
:10064000F04800B581B0804701B000BDFEE7EE483C
:1006500000B581B0804701B000BDFEE7EB4800B5B2
:1006600081B0804701B000BDFEE7E94800B581B028
:10067000804701B000BDFEE7E64800B581B0804785
:1006800001B000BDFEE7E44800B581B0804701B08D
:1006900000BDFEE7E14800B581B0804701B000BD74
:1006A000FEE7DF4800B581B0804701B000BDFEE73E
:1006B000DC4800B581B0804701B000BDFEE7DA48F4
:1006C00000B581B0804701B000BDFEE7D74800B556
:1006D00081B0804701B000BDFEE7D54800B581B0CC
:1006E000804701B000BDFEE7D24800B581B0804729
:1006F00001B000BDFEE7D04800B581B0804701B031
:1007000000BDFEE7CD4800B581B0804701B000BD17
:10071000FEE7CB4800B581B0804701B000BDFEE7E1
:10072000C84800B581B0804701B000BDFEE7C648AB
:1007300000B581B0804701B000BDFEE7C34800B5F9
:1007400081B0804701B000BDFEE7C14800B581B06F
:10075000804701B000BDFEE7BE4800B581B08047CC
:1007600001B000BDFEE7BC4800B581B0804701B0D4
:1007700000BDFEE7B94800B581B0804701B000BDBB
:10078000FEE7B74800B581B0804701B000BDFEE785
:10079000B44800B581B0804701B000BDFEE7B24863
:1007A00000B581B0804701B000BDFEE7AF4800B59D
:1007B00081B0804701B000BDFEE7AD4800B581B013
:1007C000804701B000BDFEE7AA4800B581B0804770
:1007D00001B000BDFEE7A84800B581B0804701B078
:1007E00000BDFEE7A54800B581B0804701B000BD5F
:1007F000FEE7A34800B581B0804701B000BDFEE729
:10080000A04800B581B0804701B000BDFEE79E481A
:1008100000B581B0804701B000BDFEE79B4800B540
:1008200081B0804701B000BDFEE7994800B581B0B6
:10083000804701B000BDFEE7964800B581B0804713
:1008400001B000BDFEE7944800B581B0804701B01B
:1008500000BDFEE7914800B581B0804701B000BD02
:10086000FEE78F4800B581B0804701B000BDFEE7CC
:100870008C4800B581B0804701B000BDFEE78A48D2
:1008800000B581B0804701B000BDFEE7874800B5E4
:1008900081B0804701B000BDFEE7854800B581B05A
:1008A000804701B000BDFEE7824800B581B08047B7
:1008B00001B000BDFEE7804800B581B0804701B0BF
:1008C00000BDFEE77D4800B581B0804701B000BDA6
:1008D000FEE77B4800B581B0804701B000BDFEE770
:1008E000784800B581B0804701B000BDFEE776488A
:1008F00000B581B0804701B000BDFEE7734800B588
:1009000081B0804701B000BDFEE7714800B581B0FD
:10091000804701B000BD4FF001007047A9020008F8
:10092000B9020008C9020008D9020008E90200085B
:10093000F902000809030008190300084D11000816
:100940003903000849030008590300086903000837
:10095000790300088903000899030008A903000827
:10096000B9030008C9030008D9030008E903000817
:10097000F903000809040008190400082904000804
:1009800039040008490400085904000869040008F3
:10099000790400088904000899040008A9040008E3
:1009A000B9040008C9040008D9040008E9040008D3
:1009B000F9040008090500081905000829050008C0
:1009C00039050008490500085905000869050008AF
:1009D000790500088905000899050008A90500089F
:1009E000B9050008C9050008D9050008E90500088F
:1009F000F905000807060008150600082306000888
:100A0000310600083F0600084D0600085B06000896
:100A100069060008770600088506000893060008A6
:100A2000A1060008AF060008BD060008CB060008B6
:100A3000D9060008E7060008F506000803070008C5
:100A4000110700081F0700082D0700083B070008D2
:100A500049070008570700086507000873070008E2
:100A6000810700088F0700089D070008AB070008F2
:100A7000B9070008C7070008D5070008E307000802
:100A8000F1070008FF0700080D0800081B08000810
:100A9000290800083708000845080008530800081E
:100AA000610800086F0800087D0800088B0800082E
:100AB00099080008A7080008B5080008C30800083E
:100AC000D1080008DF080008ED080008FB0800084E
:100AD0000909000880B582B000AF144A134B5B6966
:100AE00023F008035361124A114B5B6823F00103A2
:100AF0005360104B03F5805314331B687B607B6895
:100B000023F00F037B607B6843F003037B60094B9A
:100B10007A6803F5805314331A6000F07BF800F014
:100B20000BF800BF0837BD4680BD00BF00ED00E0F8
:100B3000008000500010005880B485B000AF304BEA
:100B4000DB68B3F5803F52D12E4B1B6803F00403E2
:100B5000002B4FD02B4B9B6803F070631B0E0133AF
:100B6000FB60284B9B6803F4FE431B0A0133BB6008
:100B7000244B9B6803F4FE031B0C01337B60214B69
:100B8000DB6803F00103002B18D01F4AFB68B2FB9F
:100B9000F3F3BA6802FB03F33B603A687B68B2FB8D
:100BA000F3F31A4A1360194B1A68154BDB68DBB272
:100BB0000133B2FBF3F3154A13601BE0144AFB68E0
:100BC000B2FBF3F3BA6802FB03F33B603A687B685D
:100BD000B2FBF3F30D4A13600C4B1A68084BDB6849
:100BE000DBB20133B2FBF3F3084A136002E0074BB8
:100BF000054A1A6000BF1437BD4680BC704700BF6D
:100C0000004600501047005000366E01700800206A
:100C1000001BB70080B582B000AFFFF77CFE034633
:100C2000002B00F033819C4B5A689C4B1340002BE7
:100C300007D0994A984B5B6823F4803323F0020372
:100C40005360974B5B6803F03003002B3BD0944A12
:100C5000934B5B6823F0F0035360914A904B5B68C1
:100C600043F4003353608C4A8B4BDB6823F0010361
:100C7000D360894A884B5B6823F400335360894B07
:100C8000894A5A60874B00229A60864B05221A6077
:100C9000814B1B6803F46073B3F5607F04D0814B14
:100CA0009B68B3F5FA7FF3D27E4A7E4B1B6823F034
:100CB00001031360784B1B6803F46073B3F5607F26
:100CC00001D00023E3E0744B1B6803F00403002B06
:100CD00040F0DC80754BDB6803F48033002B05D0DB
:100CE000724A724BDB6823F48033D360704B7B60B5
:100CF0007B68704AA2FB03235B0D013B3B60664AA5
:100D0000654B5B6843F001035360634A624B5B6869
:100D100043F01003536060493B681A04664B134369
:100D20008B605D4A5C4B5B6843F0400353605A4AFA
:100D3000594B5B6823F010035360574A564B5B686E
:100D400043F480235360574B574A5A60554B002257
:100D50009A60544B05221A6000BF4F4B1B6803F08A
:100D60000403002B04D14F4B9B68B3F5FA7FF4D2F8
:100D70004C4A4C4B1B6823F001031360464B1B6825
:100D800003F00403002B25D0434A434B5B6823F058
:100D900001035360454B00221A61444B00225A6103
:100DA000424B00221A62414A404BDB6843F48033D5
:100DB000D360394A384B5B6823F040035360394BAA
:100DC00040F245525A60374B00229A60354B05225B
:100DD0001A6001E000235AE0324B9B68632BFBD87A
:100DE000304A304B1B6823F001031360304B7B60AB
:100DF0007B681B0A314AA2FB03239B0A013B3B6031
:100E000025493B681A042C4B13438B60254B40F655
:100E10001B425A60234B00229A60224B05221A6023
:100E200000BF204B9B68632BFBD81E4A1D4B1B68E1
:100E300023F0010313601E4B7B607B68DB09204AB3
:100E4000A2FB0323DB0A013B3B6013493B681A0406
:100E5000194B13438B60134B41F223325A60114BF1
:100E600000229A600F4B05221A6000BF0D4B9B6851
:100E7000632BFBD80B4A0B4B1B6823F00103136059
:100E8000054B104A9A60104B0522DA600123184680
:100E90000837BD4680BD00BF10470050020001006A
:100EA0000047005010E000E0A34B4C00004600500B
:100EB00000389C1C819F5E16014F0001C7541E0123
:100EC0002FE3BE00014F03016041005080B485B0A4
:100ED00000AFF860B9607A604FF0FF3318461437FE
:100EE000BD4680BC704700BF80B485B000AFF860DD
:100EF000B9607A604FF0FF3318461437BD4680BCA6
:100F0000704700BF80B485B000AFF860B9607A6008
:100F1000002318461437BD4680BC704780B485B0A6
:100F200000AFF860B9607A604FF0FF3318461437AD
:100F3000BD4680BC704700BF80B400AF4FF0FF33A8
:100F40001846BD4680BC704780B483B000AF78605F
:100F500039603B68002B02D04FF0FF3301E06FF0A7
:100F6000010318460C37BD4680BC704780B483B07F
:100F700000AF786039607A683B689A4202D14FF0DE
:100F8000FF3301E06FF0010318460C37BD4680BC0B
:100F9000704700BF80B483B000AF78604FF0FF337C
:100FA00018460C37BD4680BC704700BF80B487B080
:100FB00000AF7860154B7B61154B1B68002B08D187
:100FC000134B144A1A60124B1A687B691344124A75
:100FD00013600F4B1B683B610D4B1B681A467B6807
:100FE0001344073323F00703FB600B4B1B68FA68BD
:100FF0009A4201D3002303E0054AFB6813603B6972
:1010000018461C37BD4680BC704700BF88F70000FB
:1010100004080020780800200808002080B483B06D
:1010200000AF78604FF0FF3318460C37BD4680BCE8
:10103000704700BF80B483B000AF78604FF0FF33DB
:1010400018460C37BD4680BC704700BF80B483B0E3
:1010500000AF786039604FF0FF3318460C37BD465B
:1010600080BC704780B400AF4FF0FF331846BD46D8
:1010700080BC704780B400AF4FF0FF331846BD46C8
:1010800080BC704780B483B000AF7860FEE700BFDB
:1010900080B400AF00BFBD4680BC704780B483B051
:1010A00000AF78604FF0FF3318460C37BD4680BC68
:1010B000704700BF80B483B000AF03463960FB7156
:1010C00097F90730002B0BDA0D49FB7903F00F037A
:1010D000043B3A68D2B29200D2B20B441A7609E0CD
:1010E000084997F907303A68D2B29200D2B20B445D
:1010F00083F8002300BF0C37BD4680BC704700BF9B
:1011000000ED00E000E100E080B582B000AF786063
:101110007B68013BB3F1807F01D301230FE00A4AD2
:101120007B68013B53603F214FF0FF30FFF7C2FF68
:10113000054B00229A60044B07221A6000231846D0
:101140000837BD4680BD00BF10E000E080B500AFAD
:1011500000F0A0F8134B1B680133124A1360114BC7
:101160001B68C82B1BD1104B1B68002B12D00F4AD9
:101170000E4B5B6843F4403353600D4B1B68032BED
:1011800005D10A4A094B5B6843F001035360064BE3
:1011900000221A6000F00EF8024B00221A6000BF15
:1011A00080BD00BF54080020500800200081024884
:1011B0004C08002080B400AF334B1B68002B2BD1B0
:1011C000324B1B68002B06D1314A314B5B6843F030
:1011D0000113536053E02D4B1B68012B06D12C4AA1
:1011E0002B4B5B6843F00213536048E0274B1B68AE
:1011F000022B06D1264A264B5B6843F0031353604B
:101200003DE0224B1B68032B39D1214A204B5B6800
:1012100043F00313536032E01B4B1B68012B2ED1AC
:101220001A4B1B68002B06D1194A194B5B6843F413
:101230004033536023E0154B1B68012B08D1144A3F
:10124000134B5B6843F4803343F00203536016E0B2
:101250000E4B1B68022B08D10D4A0D4B5B6843F403
:10126000003343F00103536009E0084B1B68032B74
:1012700005D1074A064B5B6843F00303536000BF88
:10128000BD4680BC704700BF740800204C08002099
:101290000081024880B500AF444B5B6A03F4804391
:1012A000002B0DD1424B1B68002B09D1414B1B6811
:1012B000012B05D13E4B1B6801333D4A136034E0DE
:1012C0003A4B5B6A03F48043002B0DD1384B1B680B
:1012D000012B09D1374B1B68012B05D1344B1B68FF
:1012E0000133334A136020E0304B5B6A03F48043E0
:1012F000002B1AD12E4B1B68022B16D12D4B1B68CD
:10130000012B12D1302000F075F80346002B0CD1D0
:10131000274B00221A60284B01221A6000BF234B82
:101320005B6A03F48043002BF9D0204B5B6A03F423
:101330000043002B09D1214B1B68002B05D11F4B0B
:101340001B6801331D4A13602DE0184B5B6A03F4E0
:101350000043002B09D1194B1B68012B05D1174BFA
:101360001B680133154A13601DE0104B5B6A03F4E0
:101370000043002B17D1114B1B68022B13D13120D6
:1013800000F038F80346002B0DD10C4B00221A60F8
:10139000094B01221A6000BF044B5B6A03F400434F
:1013A000002BF9D0FFE700BF80BD00BF00810248DD
:1013B0005808002074080020500800205C08002015
:1013C00080B400AF074B00221A60074B00221A605E
:1013D000064B00221A60064B01221A6000BFBD4670
:1013E00080BC704768080020600800206408002066
:1013F0006C08002080B483B000AF0346FB71164B2D
:101400001B68002B02D04FF0FF3320E0134B1B680A
:101410005A1C134B1340002B03DA013B63F03F03CC
:1014200001331A460D4B1A600C4B1B6897F90710D5
:101430000C4AD154094B1A680B4B1B689A4202D1D3
:10144000054B01221A60094B00221A60002318463E
:101450000C37BD4680BC7047640800206808002037
:101460003F0000800C080020600800206C0800206D
:1014700080B483B000AF7860164B1B68002B02D09D
:101480004FF0FF3321E0144B1B685A1C134B1340E1
:10149000002B03DA013B63F03F0301331A460E4B86
:1014A0001A600D4B1B680E4AD356DAB27B681A706D
:1014B000094B1A680B4B1B689A4202D1054B01225B
:1014C0001A60094B00221A60002318460C37BD46EB
:1014D00080BC70476C080020600800203F0000803E
:1014E0000C080020680800206408002080B582B045
:1014F00000AFFFF765FF3E4B0022DA613C4A3C4BF0
:101500001B6943F4004343F080031361384A384BAE
:101510005B6843F001035360354A354B5B6843F425
:1015200080335360324A324B5B6843F0011353609F
:101530002F4A2F4B5B6843F0020353602C4A2C4B1D
:101540005B6843F400335360294A294B5B6843F0DE
:1015500002135360264A264B5B6843F00303536033
:10156000234A234B5B6843F440335360204A204BAB
:101570005B6843F0031353601E4B1B681E4AA2FBBB
:1015800003239B091846FFF7BFFD1C4B1B68012B6B
:10159000FBD0FB1D1846FFF76BFFFB79302B10D1FA
:1015A000174B1B68012B0CD1164B1B680133154AD6
:1015B0001360144B1B68042B18D1124B00221A60C5
:1015C00014E0FB79312B07D10D4B1B68012B03D1A4
:1015D0000B4B00221A6009E0FB79312BD5D1084B67
:1015E0001B68002BD1D1064B01221A60CDE700BF4A
:1015F0000081024870080020D34D62106C08002062
:10160000740800204C08002070B50F4E0F4D761B5B
:10161000B61018BF002405D0013455F8043B984794
:10162000A642F9D10A4E0B4D761BFFF731FDB610DD
:1016300018BF002406D0013455F8043B9847A64251
:10164000F9D170BD70BD00BF5816000858160008CB
:081650005816000858160008A6
:10165800A8EBFF7F01000000BCEBFF7F010000004A
:08167000000E27070100000035
:0400000508000201EC
:00000001FF
